:020000040000fa
:080000000002040000000000f2
:020000040000fa
:10040000af7626000eff27000e01880000000000d6
:100410000c000700e02f2700010020000f0007005c
:10042000000020000000e000020032000000020096
:1004300000000000da690200000000000040da005d
:100440000000fe00800820000000e00002003200f2
:10045000002020009001880000000600a102880012
:10046000800078000000eb001a003700e2804000b6
:1004700054a0b4009101ba00e280400054a0b4003e
:100480009102ba00e280400054a0b4000002eb00e8
:10049000472bde00f507b200a6018800602ce100c2
:1004a00008003a000049eb000201e80002003900b0
:1004b0003420ec0002f0a0008301e900f9ff3e00c7
:1004c000040037006128e100010032000082eb00e7
:1004d000040007001101ba000200e000e3ff3a0047
:1004e0000000060004d0a300e20f49001c00390000
:1004f000810278003549ba000201e80002003900a3
:100500003420ec0002f0a0008301e9000f0032006b
:100510002549ba000201e800020039003420ec004d
:1005200002f0a0008301e900080032000400e000ae
:100530000600320015c9ba000201e80002003900c5
:100540003420ec0002f0a0008301e9008180e80083
:1005500054a0b4000300e000e2ff3a0000000600ef
:100560009102ba00055978008301e900f7ff3200d3
:10057000c82ade00055978008301e900f3ff320044
:100580000400e000f1ff320011d9ba00eeff37009d
:100590002a610400000000000040da000000fe00b4
:1005a000320020005e00370003f0a200889fbe00ea
:1005b0008a9fbe008c1f78006f0107007601330010
:1005c0006450e1004f0032006420e100520032002c
:1005d00003826c0007003b000905d0000306d00031
:1005e000820f54000c065d00020039000200320048
:1005f00089017800030678008582550004003d00db
:100600000003fd008103fd008502ea008b854200a6
:10061000840f720002003b0060001000e0801800b0
:100620006011b8000005eb007a28e1000a003900eb
:1006300006007800c75ddd00f707b200878075000f
:100640002d003700828171000a0178006105600089
:100650008180d1000080d3008502e900f9ff3b00d2
:10066000060440008784480002003b006004140038
:10067000e0841c000988a300070032008a81710011
:1006800082817100610164008904d1000884d30073
:100690008b05e800170037000978a30013003a0023
:1006a0000b00e000130034008b05e900080444004f
:1006b00089844c000a4474000978a3000d003a00b4
:1006c0000b00e000070034008b05e900080444003b
:1006d00089844c0001003a000b0020000978a30037
:1006e000f7ff32000001eb00020037008281710049
:1006f0000a017800e50007000cf0a70001f0a00057
:100700002e0137006420e10002003a00838f6c0064
:100710002e0133000801be000200be002701370091
:10072000889fbe008a9fbe008c9fbe000206780094
:1007300001f0a7000cf0a0000004be00f9000700c3
:100740000800be006420e1000700390002003a0002
:10075000f1ff2700f0ff2f000160a000120220002f
:10076000028088005100370009f0a1000800be0097
:100770000200200003f8230094000700f4ff3c006f
:100780000800be0002002000039823008d0007002f
:100790000800be00300035000200200003f02300f6
:1007a0008a00070005003c000800be000801be00ea
:1007b000090107000005be000e0037000c10a20062
:1007c0000000200001f823000801be0076ff0700aa
:1007d0000200200003f02300ff0007000005be0018
:1007e000330107000200200003002c00fa0007007c
:1007f0000004be000a00be00b2d02800130b2c007b
:100800006aff07000a01be00f3000700020f25007f
:10081000330b240065ff0700809fbe000a00be0066
:100820005206220013f02b00eb000700b2662100f5
:10083000f3f623005dff07000a01be00e600070093
:100840004f01be001d0007000801be00e2000700c6
:100850000801be0055ff07000c00a7000700370085
:10086000b2fd200093fc23000c10a7004fff0700ef
:100870000cf0a70001f0a2000c0037000cf0a7005c
:100880000200370001f0a20004003700b2fd200092
:10089000930424000c10a60003003700b2fd2000d2
:1008a00093fc23000c10a70040ff07004f06be007a
:1008b0004f05be004f04be0000000600889fbe002a
:1008c0008a9fbe008c1f7800ab000700b200330087
:1008d00003866c006450e1002e0032006420e100c9
:1008e000330032006150e1002f0032006120e1004e
:1008f0003100320085855500eb07b000090020006b
:1009000008042000050037000804440089844c00d6
:100910000a0031000603430087834b0000015300a7
:1009200081815b00f8ff33000203be000800a000d5
:100930000804440089844c00f6ff3900c639dd0004
:100940008301730001003200130020008904d100ec
:100950000884d3000998a300050032000800a7000e
:100960000300a0008904d1000884d3008b05e800af
:100970008904d1000884d3000001eb000281d20079
:100980004200070001f0a1000cf0a70001f0a00058
:100990008a0037006420e1008c0032000801be00ac
:1009a0000200be00f7ff37006120e100870032003f
:1009b0006000b800f3ff37000000200001f82700b6
:1009c000f0ff370014002000ee003700f4ff2f0086
:1009d000ec003700881f7800010478000100e00077
:1009e00005003d0060001000e080180002003b00a0
:1009f00001f02c00030037000400070008f0a700f6
:100a000001f0a0004f04780000000600889fbe009f
:100a10008a9fbe00010578000000e0001800320047
:100a20000004be006011b8006b0920000982cf00ed
:100a3000020039000882cf000441b0006942520030
:100a40000e00320008003b008281710061016400e9
:100a50008904d1000884d3008b05e8000442e80033
:100a6000f9ff3a00050037000804440089844c006f
:100a70008b05e9000442e900fbff3a000300070090
:100a80004f05be004f04be0000000600810020009c
:100a9000618055000b003d000b00200061fe2f001f
:100aa0000100e1001d0034008281710061016400d9
:100ab0008904d1000884d3000000e800faff3a005e
:100ac00071002000610064000300700002006000fb
:100ad0000900320061044400e0844c000988a5004c
:100ae000050032008b05e8006808e10002003a00ca
:100af0008904d1000884d300f20f20000258e100dd
:100b000005003d00c75ddd00f907b2008980750072
:100b100008007800000006000bf827008b00780022
:100b200000000500c70ade00f107b200f50fb200b1
:100b300008003200e1cf4200020032000170a00044
:100b400024000500810f7000010032000408050038
:100b500044000500810f700002003a0014000500f7
:100b60008502e9000000400081c04800fcff3b0016
:100b70000170a000240005000004be00e9ff07008a
:100b80000003be000405be000200be00e5ff070032
:100b9000844f7500000006000200be006450e100b2
:100ba000050036006420e100020036000968a30059
:100bb00001003a000800be000160a0004f06780066
:100bc0004f05be004f04be0000000600f0ff2f00de
:100bd000f1ff2700f9ff3700889fbe008a9fbe0003
:100be0008c1f7800e4ff0700ebff330003866c00e6
:100bf0006450e100240032006420e100270032004c
:100c00006150e100220032006120e1002100320049
:100c10008b854200eb07b1000134b800003ab80000
:100c20000804420089844a00013ab8000030b80044
:100c30008880400009014a000400330000004000a1
:100c400081804800020149008b05e900c909dd00e7
:100c5000830170000100320013002000c814de0080
:100c60004814dd004709de001200b200c808de00ab
:100c70000884700085ff070001f0a1000cf0a700b8
:100c800001f0a000cdff37006120e100cfff32006e
:100c90000801be000200be00f7ff37006150e1000e
:100ca000fcff3a00c9ff37000001eb00500037009d
:100cb000889fbe008a9fbe008c1f78000004be0083
:100cc00098ff07000478a30026003a006120e100a5
:100cd0002500320009f8a30025003a006420e10055
:100ce00021003200f507b1000508a3000200320020
:100cf00000004000818048006044b80003102000dc
:100d000002002000000040008180480008054400e7
:100d100089854c000a0541008b8549000a05500071
:100d20008b855800030033000a00be0002047400e3
:100d3000838474008301d1000281d300830f71008a
:100d4000f0ff3a008904d1000884d3006001490013
:100d500082017800c1adde00fb07b0004bff070049
:100d600096ff37000960a0000800be0093ff37001f
:100d70001202200002808800f0ff2f00f1ff270000
:100d80008eff3700889fbe008a9fbe00841f7800b8
:100d900079ff07004f00780011003300f0ff2f00ab
:100da000838f6c0006003b00040565000a00a70065
:100db0000800370009f0a6001000200008003700e6
:100dc000820f5400838f5c00030039001000200064
:100dd00001003e000000200009f0a7000000ea002a
:100de0004f05be004f04be000000e00000000600fa
:100df000889fbe008a9fbe008c9fbe00820578003f
:100e00000004be0047ff07000800be006420e100a8
:100e10000700390002003a00f1ff2700f0ff2f0021
:100e20000160a000120220000280880055003700f7
:100e30006120e10003003a000b00a70001f8230045
:100e40005000370001f0a10002002100936424004b
:100e5000dcfe07000800be0004003500b2fd2000e3
:100e6000930c24006c0007000004be000005eb009a
:100e70000b00a6004f0dde0001f0a1000004be0033
:100e800032982f0023ea230053ff07000001eb00f4
:100e900003f023000b00a70003f82300c3fd0700a5
:100ea0003c0007000000a7000a00a200c9fe0700de
:100eb0000b00e000030032000200200003f02300da
:100ec000b9fd070001f0a2000006be0002002000ec
:100ed0009304240040ff07000801be00b3fd070093
:100ee000809fbe000c00be0022a22a00d3a72300d0
:100ef00039ff07004f01be00acfd07000004be0033
:100f000001f0a1000200200003982300adfe0700bd
:100f10000800be00190035000001be002eff0700ca
:100f20000006be00b2c52900e36223002aff0700c5
:100f300022222b00f3942b009cfd07000c01be0025
:100f400025ff0700e273280083c0230097fd0700f8
:100f50000c01be0020ff070042aa2a00a3e22b00da
:100f600092fd07000c01be001bff07000801be0038
:100f700019ff07000801be008cfd07000a00a7004a
:100f800001f0a2004f06be004f05be004f04be0098
:100f9000000006000001be00e2fe07000470a7008a
:100fa00003f0a1006509b100160032000d00350004
:100fb0006828e10006003500f0ff2f00f1ff270050
:100fc0000300e00013003b000100280000000500c2
:100fd00000004000818048008502e900fcff3a00e3
:100fe00008003700f88f420002003c008000eb0050
:100ff000000005008100d1000080d3008502e800d8
:10100000fcff3a000300e00002003b00600010001b
:10101000e0801800000006000400200000003700f7
:10102000889fbe008a9fbe008c1f78004f26dd007f
:10103000d1fe0700d8fe33006120e10043003200fa
:101040006250e10041003e003e0039006420e100b2
:101050003c003200058255000f003b000402e8000e
:1010600038003a00800f5300818f5b003500340058
:101070000800be0003f0a10001f0a60003f0a000ec
:101080000cf0a70049fd0700ccfe37000603430023
:1010900087834b000c4646000005530081855b00aa
:1010a000020033000a03be000c00a0000402e900a5
:1010b000f6ff3b00850578000602430087824b005f
:1010c00004003a006000b80009f0a70001f0a00099
:1010d000bafe37000002520081825a000704e00085
:1010e000040033000603430087834b008b05e900af
:1010f000faff3700090578000604be000203be00af
:101100006011b80061fe0700e00f5200e08f5a0046
:101110000700350002003c000c08a3000400320068
:101120000601be0003f0a0000cf0a7001ffd0700a1
:101130000a85680001f0a1000af0a70001f0a000f4
:101140009efe37000800be009cfe37001002200003
:101150000cf0a600008088009cfe37000000fa001a
:1011600068815700cfb89700c081230002000700b4
:101170000080fa0000000600ef03b000889fbe0068
:101180008a9fbe008c9fbe008e1f780000027800f0
:10119000b1af9f00a2af9f000000eb0080b79f009f
:1011a00004077800d1023700bfa897008100e8004b
:1011b000b1af9f0052c2b300824f500006003a0008
:1011c0008046eb0003c3b30065415100b1c2b300d8
:1011d0003fa89700100037003e0190000204b200c3
:1011e000040032001e01780000497800020fe80078
:1011f000050037000000fb008e007800c7020700e2
:10120000e10f4000b90232000fb197000201e8007f
:1012100082b79f00b502370010427800d5c2b300f4
:10122000854f52000c0032008002e800d6c2b300a5
:10123000864f520005003c00824f520009003200e8
:10124000814f52000e003a0008003700834f5200d1
:101250000b003a00070037000d34a0000000e80042
:10126000edff37000d04a000030037000d14a000af
:10127000010037000d24a00005007800e6ff3700cc
:10128000b0af9f0062816600010032000d04a10032
:1012900068816600010032000d24a1000401fb00fa
:1012a0000203b100e90f51000d003e008004eb0085
:1012b000bfa89700ea48b80009fd2f0080844400c9
:1012c0001100fb00808444005100fb000003b100ca
:1012d000e90f5000f7ff3600b1af9f000a0037005a
:1012e0008004eb00a2c2b300824f520006003a0015
:1012f000afab9700c7047800a7af9f003fac970043
:101300000804e800b8af9f000005eb00e2c2b3009c
:10131000bfad97009b4f11001b003a006441510084
:101320008b05e800bbaf9f001b467800824f56003c
:101330000c003a002fa8970040057800a0af9f004e
:101340008b0078008100e800b1af9f000e003700ed
:10135000ea18b8000003b100810140000201e80072
:10136000020037008a0178003fa997009200fb0035
:1013700000fd2f0001004000e90f5000f4ff36008f
:1013800003057800b2af9f0035c6b300c1c6b300f5
:10139000bfa9970033427800e4779f0032c7b300bb
:1013a000824f52001a00320008003c00854f520064
:1013b0008b003200814f52000c003200b3af9f000f
:1013c000e04f52004e023200a4003700b3af9f003e
:1013d00052c7b300824f5200a60032006341410061
:1013e000824f52009d003a0006003700708166006f
:1013f0000040eb0001003a0000c1b30080c6760057
:10140000e4ff37000d4078000074a0009b00370017
:10141000b3af9f00afa9970043027800a3af9f002e
:10142000c4af9f00e00f520002003a006683230021
:10143000c6af9f008003eb00d7af9f0002003700cc
:101440008100e800d1af9f00dfa897004fac970064
:10145000088040008045eb0090cf1500f8ff3a006f
:10146000e00f5500040032005fae97008c0f55006e
:1014700001003100daaf9f005faa97000006eb0081
:10148000848f54000100360004865400e88666000c
:101490002e003a000c01780008c2b3008fb4970008
:1014a0000e0037003e0090000004b200040032003d
:1014b0001e00780008487800000fe800050037009b
:1014c0008e0078000002200014020700e10f4000a7
:1014d000010032008904e8000c0178000c06e900e4
:1014e000e00f5100efff3a0089b79f001700370067
:1014f0003e0090000004b200090032009e01780016
:10150000080178003240780080497800030fe80035
:1015100002047800e04f500008003a000f00370046
:10152000080178003200fb00020478008e00780089
:10153000fa010700e10f4000080032000fb09700e9
:101540000000e80080b79f00040037004fac970010
:10155000dfac97006fad9700ffad970009007800f2
:101560008004e900e00f5000e1ff3a00c8af9f009f
:10157000d9af9f00eaaf9f00fbaf9f00e08f5600fe
:10158000da0132000f0037003e0090000004b20084
:10159000040032001e0078000d487800000fe800bb
:1015a000050037008e00780000022000db010700f4
:1015b000e10f4000010032008904e80008067800cd
:1015c000020037000dc2b3008fb497000c04e9008d
:1015d000e00f5600ecff3a0089b79f00c3013700c7
:1015e000b3af9f00afaa970045027800a5af9f0058
:1015f000cfa2de0005037800860378000400be0059
:101600000601be004800de00480cdd00000074004a
:10161000e0779f007084660009003200e04f5000c0
:1016200007003200e14f400005003200f0779f00d4
:10163000847f9f002b002000dbaf9f00030037005a
:10164000f4779f001c002000dcaf9f0070fb2f0090
:1016500000804700c0af9f0081ff370061fb2f0073
:1016600081804700c1af9f0012002000d2af9f00d1
:101670007bff370000ccb30000c076000080fb0089
:1016800090af9f00f0016000d39f9f000e003200da
:101690002fab97004602be00a6af9f00a4a79f00f5
:1016a000b5a79f008003eb00c7a79f000004eb00d5
:1016b000d8a79f002fa09700bfa097004fa1970029
:1016c000dfa1970007003700afa89700410278001c
:1016d000a1af9f000400780001002000020020005c
:1016e00003002000c0af9f00d1af9f00e2af9f007a
:1016f000f3af9f00e00f55000b003a001a002000e6
:101700004faa9700dfaa97006fab9700ffab970037
:10171000e00f5200e08f5a00e00f5b00e08f5b00ab
:10172000010032000005eb009faa9700050cb200f3
:10173000e5a79f0004082000848f52001b003200a0
:10174000040c2000848f520033003a0010c0b30014
:10175000e0779f006c712300100037000800fb0049
:101760004300dd00000246003400be002401be003c
:101770004faa9700dfaa97006fab9700ffab9700c7
:101780000020e10001a8e10002b0e10003b8e1009f
:10179000210039000844e800e8779f006f74970043
:1017a000f44f5400edff3a001b00370010c0b300a7
:1017b000e0779f0004012000050020006033b8009e
:1017c000120037004fa89700dfa897006fa9970075
:1017d000ffa997000400e1000588e1000690e10000
:1017e0000798e1000c003900410020000402d000fd
:1017f0008582d2000683d2008783d2008100e9006f
:10180000faff3a000844e800e8779f006f749700f9
:10181000f04f5400ebff3a006f7197000202fb009b
:101820008a0f520002003d00ea779f000300370054
:10183000840f550001003d0004057800e08f54003e
:10184000040032009fa9970063826100010032000a
:101850008904e900ef7297000502fb000003eb002a
:1018600086af9f00848f540002003400048254002d
:1018700084af9f009fab9700e48163004500320076
:10188000e281630061826300e08f51001700320043
:10189000be0190000304b200080032009e027800ee
:1018a000b3c2b300e00f52000100320083c1e80070
:1018b000834a7800050fe80008003700d0022000b6
:1018c000e00f520001003a000080e9008e0078002d
:1018d00012010700e10f4000160032000fb497001c
:1018e0000804e80088b79f0012003700e00f52009c
:1018f00010003200be0190000304b2000500320067
:101900009e01780000c2b30080497800030fe80010
:10191000050037008e00780000022000ff0007005d
:10192000e10f4000030032008fb497008904e80003
:1019300089b79f008fad9700e08f5500c40032003b
:1019400008c3b3008b0478000fb697003e009000e8
:101950000004b200040032001e007800084878003d
:10196000000fe800050037008e007800000320001b
:10197000ea000700e10f4000010032000c06e80019
:101980008904e900f1ff3a0089af9f008cb79f00fe
:10199000af0037000fae9700e00f5600170032007f
:1019a0001fa89700e801600014003a0008c2b300c5
:1019b0008c0478000fb697003e0090000004b2003f
:1019c000040032001e00780008487800000fe8008c
:1019d000050037008e00780000022000cf000700cd
:1019e000e10f4000010032000c06e8008904e90024
:1019f000f1ff3a0089af9f008cb79f009fa8970026
:101a0000e281600061826000e08f510017003200c7
:101a1000be0190000304b200080032009e0278006c
:101a2000b3c2b300e00f52000100320083c1e800ee
:101a3000834a7800050fe80008003700d002200034
:101a4000e00f520001003a000080e9008e007800ab
:101a5000b2000700e10f40007d0032000fb1970097
:101a60000201e80082b79f0079003700e00f5200c2
:101a700077003200be0190000304b200050032007e
:101a80009e01780000c2b30080497800030fe8008f
:101a9000050037008e007800000220009f0007003c
:101aa000e10f40006a0032008fb197008301e80027
:101ab00083b79f00660037000e07e900000820008a
:101ac0006fa49700800f540033003200000c2000f8
:101ad000800f540040003a004370dd00df9c970007
:101ae000e08f54001a0032000406be006a71230021
:101af000000045003004be002005be000801be0005
:101b00000400be000a010700e0779f000000fb0010
:101b1000cf80de000801be0015010700000156005d
:101b200081815e00e29f9f00f39f9f008001eb0098
:101b300083a79f000002eb0094a79f006f9a970075
:101b4000ff9a97000fa397009fa397000e003700fe
:101b5000687123000000440010017800811f7800a4
:101b6000110009000282d800cf007800a2002000f6
:101b7000811f7800110009000280d8000100780060
:101b8000cf007800e0779f00ef7497000943b00022
:101b9000e9779f00100037004270dd000605be00a7
:101ba0000404be00000678000c06e90005003300be
:101bb0008b05d1000a85d3008984d3000884d30023
:101bc000f9ff37006f006400d1832300010040005b
:101bd00010407800e0779f007fa1970032009000ce
:101be0000004b2000800320082017800130178007e
:101bf0006f709700004978008209e800e04f5000bc
:101c00000f003a00190037006f7497000800fb00be
:101c1000ffa0970094b79f00a5b79f00b6b79f009d
:101c2000c7b79f003d0007001fb29700afb29700f3
:101c30003fb39700cfb39700e10f40000b00320095
:101c40008fb497008904e80089b79f000700370028
:101c50004faa9700dfaa97006fab9700ffab9700e2
:101c60008e057800fba79f000a077800e00f570059
:101c700091ff3a00c4af9f00d5af9f00e6af9f0031
:101c8000f7af9f007fa797009fa89700688060002c
:101c9000160032000fa99700e00f51001300340026
:101ca00008c2b300820478000fb697003e0090008f
:101cb0000004b200040032001e00780008487800da
:101cc000000fe800050037008e00780000022000b9
:101cd00012000700e10f4000010032000c06e8008e
:101ce0008904e900f1ff3a008cb79f00bfa9970073
:101cf00013407800e0779f00e04f50002afd3a0043
:101d00000fb097004f0778004f06be004f05be008a
:101d10004f04be00ef03b10000000600889fbe0024
:101d200001047800b8009000628160008084eb00bc
:101d30003c003200810178000320b20018019000bd
:101d400002003a00e00f510036003a000190a00076
:101d50003104980080047800f90fb200e00f5100c0
:101d600002003a0028009000000c7800ea8f54002e
:101d700006003a00010078000008b20003003a00b3
:101d800088007800d0002000e4ff070018009000d1
:101d9000d8009000810f50000b0032000000e800d6
:101da000100498001800780009487800000ce8003a
:101db00010c0b300e187230080487800ea8f540008
:101dc00018003a00050037008800780009407800c4
:101dd00017000700800478001200370038009000d8
:101de0000010b2000f00320018019000a80090000f
:101df000480090000c14070098009000810f5000dc
:101e000004003200380090000003b3003004980052
:101e10008084eb000000eb00100498002800900084
:101e2000000c7800090078004f04be000000060096
:101e30000200fa00889fbe00a0ff9f000104780006
:101e400038009000800078000104b20033003a00ae
:101e5000e200600005003a000003b300300498007f
:101e6000110498000080eb002e003700d804900089
:101e7000e08f540006003a0012002000e680570070
:101e800048009000e8130700190498002300370069
:101e9000a8009000e08f500008003a00118823004d
:101ea00021049800010c78002100200051049800c2
:101eb000110498000030a000300498001801900030
:101ec000a800900048009000d71307002800900059
:101ed0008080eb0011049800aff89700014878006b
:101ee000000ce8002ff89700ea4f50000b003a0072
:101ef000380090000010b200080032001801900075
:101f0000a800900048009000c71307000000eb00f5
:101f100010049800a8009000010c7800aff897001a
:101f20000100fb004f04be000080fa000000060024
:101f30006022b800060220000000d0008180d2009c
:101f40000482d2008582d2000000a000020252006a
:101f500083825a00030031000202420083824a0059
:101f60000000a1000603e900f3ff3a0000000600ac
:101f7000020ab900001bb9000200b800810042004b
:081f800081004300000006008f
:020000040000fa
:0200000401f009
:04000c00f8ff0000f9
:020000040000fa
:0200000401f009
:040010007dff000070
:020000040000fa
:0200000401f009
:040014007fff00006a
:020000040000fa
:0200000401f009
:04001800efff0000f6
:020000040000fa
:10000800cc020000cc020000cc020000cc020000b0
:10001800cc020000cc020000cc020000cc020000a0
:10002800cc020000cc020000cc0200006e6f000081
:10003800cc020000cc020000cc0200007e70000060
:10004800cc020000cc020000cc020000e06c0000f2
:10005800ee72000078720000cc020000cc020000b2
:10006800cc020000fe6e0000cc020000cc020000b2
:10007800cc020000cc020000cc020000cc02000040
:10008800cc020000cc020000cc020000cc02000030
:10009800cc020000cc020000b66d0000f672000031
:1000a800cc020000cc020000cc020000cc02000010
:1000b800cc020000cc020000cc020000cc02000000
:1000c800cc020000cc020000cc020000cc020000f0
:1000d800cc020000cc020000cc020000cc020000e0
:1000e800cc020000cc020000cc020000cc020000d0
:1000f800cc020000cc020000cc020000cc020000c0
:10010800cc020000cc020000cc020000cc020000af
:10011800cc020000cc020000cc020000cc0200009f
:10012800cc020000cc020000cc020000cc0200008f
:10013800cc020000cc020000cc020000cc0200007f
:10014800cc020000cc020000cc020000cc0200006f
:10015800cc020000cc020000cc020000cc0200005f
:10016800cc020000cc020000cc020000cc0200004f
:10017800cc020000cc020000cc020000cc0200003f
:10018800cc020000cc020000cc020000cc0200002f
:10019800cc020000cc020000cc020000cc0200001f
:1001a800cc020000cc020000cc020000cc0200000f
:1001b800cc020000cc020000cc020000cc020000ff
:1001c800cc020000cc020000cc020000cc020000ef
:1001d800cc020000cc020000cc020000cc020000df
:1001e800cc020000cc020000cc020000cc020000cf
:1001f800cc020000cc020000cc020000cc020000bf
:10020800cc020000cc020000cc020000cc020000ae
:10021800cc020000cc020000cc020000cc0200009e
:10022800cc020000cc020000cc020000cc0200008e
:10023800cc020000cc020000cc020000cc0200007e
:10024800cc020000cc020000cc020000cc0200006e
:10025800cc020000cc020000cc020000cc0200005e
:020000040000fa
:108000000a0900004d5000005539000032350000cb
:10801000305f00005772000069740000652800009e
:10802000293a000020570000524900005445000042
:1080300020450000525200004f520000000a00008c
:10804000094100004b38000039360000335f000062
:10805000577200006974000065280000293a00008a
:108060002057000052490000544500002045000000
:10807000525200004f520000000a0000094d00005b
:108080005055000039320000353000005f520000ca
:1080900065610000645f00004d65000061730000d1
:1080a00075720000655f0000526f00007567000088
:1080b00068280000293a00002052000045410000d5
:1080c0004420000045520000524f000052000000c2
:1080d0000a0900004d5000005539000032350000fb
:1080e000303a00002041000054540000454d00008b
:1080f0005054000053200000544f00002052000054
:1081000045410000442000004f550000540000008d
:020000040000fa
:108110009c00fa00889fbe008a9fbe008c9fbe0014
:108120006087980071879800028f9800138f9800dd
:10813000248f9800358f9800468f9800578f9800ad
:108140006011b8007eb097008eb89700e20402007c
:1081500000000000e00f50001f003a006011b8005e
:108160005eb09700eeb09700e2040200000000004d
:10817000e00f500018003a006011b8003eb09700c0
:10818000ceb09700e204020000000000e00f5000b3
:1081900011003a001eb89700aeb89700809fbe004d
:1081a0003eb89700ceb89700809fbe004e8b9000df
:1081b000de8b90002e8a9000be8a90000e8990007f
:1081c0009e8990006e809000fe809000d707070087
:1081d000e8875700d0073700b0c28100c1c28100d4
:1081e00001f0a2006e819000fe819000ec0502007b
:1081f000000000000004be00d0c28100e1c2810086
:108200000e8990009e899000ec050200000000009d
:108210000001be000800be00d40202000000000001
:108220000004be00f0c2810001c381002e899000cd
:10823000be899000ec050200000000000001be00b5
:108240000800be00d402020000000000020020006e
:1082500003f02300ec05020000000000008fbe00c8
:1082600090c28100a1c281006e819000fe819000c9
:10827000ec050200000000000004be00d0c2810036
:10828000e1c281002e899000be899000ec050200b9
:10829000000000000001be000800be00d60202007f
:1082a000000000000004be00f0c2810001c3810094
:1082b0000e8990009e899000ec05020000000000ed
:1082c0000001be000800be00d40202000000000051
:1082d0000200200003f02300ec0502000000000073
:1082e000200798003107980090c28100a1c2810048
:1082f0000e8990009e899000ec05020000000000ad
:108300000004be00b0c28100c1c281002e8990006d
:10831000be899000ec050200000000000001be00d4
:108320000800be00d4020200000000000004be00ed
:10833000f0c2810001c381006e819000fe81900037
:10834000ec050200000000000001be000800be00b5
:10835000d6020200000000000200200003f023000b
:10836000ec0502000000000040079800510798004b
:1083700090c28100a1c281002e899000be89900028
:10838000ec050200000000000004be00b0c2810045
:10839000c1c281000e8990009e899000ec05020008
:1083a000000000000001be000800be00d60202006e
:1083b000000000000004be00d0c28100e1c28100c4
:1083c0006e819000fe819000ec050200000000002c
:1083d0000001be000800be00d40202000000000040
:1083e0000200200003f02300ec0502000000000062
:1083f000600798007107980018c0b3006011b800ba
:108400004e889000de889000e20402000000000028
:10841000e00f5000010032000044eb0008407800fb
:108420000004a200e04f50001a003a0018c0b30048
:108430006011b8003eb89700ceb89700e204020081
:1084400000000000e00f5000010032000044eb008b
:10845000084078000004a200e04f50000d003a00f0
:1084600018c0b3006011b8001eb89700aeb89700ee
:10847000e204020000000000e00f500001003200a2
:108480000044eb00084078000004a200e04f5000d8
:10849000940632004e899000de8990004e8890004c
:1084a000de889000ec050200000000000004be0021
:1084b0003eb99700ceb997003eb89700ceb8970066
:1084c000ec050200000000000001be000800be0034
:1084d000d6020200000000000004be001eb9970092
:1084e000aeb997001eb89700aeb89700ec05020031
:1084f000000000000001be000800be00d60202001d
:10850000000000007b0a0700000f9800110f980080
:108510000e0990009e0990004e889000de88900021
:10852000ec05020000000000408f9800518f980079
:108530000e0990009e0990003eb89700ceb89700b3
:10854000ec0502000000000030bf9f0041bf9f000b
:108550000e0990009e0990001eb89700aeb89700d3
:10856000ec0502000000000010bf9f0021bf9f002b
:108570007eb197008eb997007eb097008eb89700b5
:10858000ec050200000000000004be005eb1970090
:10859000eeb197005eb09700eeb09700ec050200d8
:1085a000000000000001be000800be00d60202006c
:1085b000000000000004be003eb19700ceb197005d
:1085c0003eb09700ceb09700ec050200000000001e
:1085d0000001be000800be00d6020200000000003c
:1085e000440a0700000f9800110f98000e09900030
:1085f0009e0990007eb097008eb89700ec050200af
:108600000000000070b79f0001bf9f000e0990009e
:108610009e0990005eb09700eeb09700ec05020056
:108620000000000050b79f0061b79f000e09900046
:108630009e0990003eb09700ceb09700ec05020076
:108640000000000030b79f0041b79f0090c281003a
:10865000a1c281000001be00d6020200000000009d
:108660007eb197008eb99700ec0502000000000073
:10867000200f9800310f980090c28100a1c28100a4
:108680000001be00d6020200000000005eb19700ab
:10869000eeb19700ec05020000000000400f9800ca
:1086a000510f980090c28100a1c281000001be005c
:1086b000d6020200000000003eb19700ceb1970044
:1086c000ec05020000000000600f9800710f980098
:1086d000b0c28100c1c281000001be00d60202000a
:1086e000000000007eb197008eb99700ec050200f3
:1086f00000000000001798001117980090c2810038
:10870000a1c281000001be00d602020000000000ec
:108710002017980031179800b0c28100c1c28100b3
:108720000001be00d60202000000000040179800c1
:1087300051179800d0c28100e1c281000001be0043
:10874000d602020000000000601798007117980020
:10875000f0c2810001c381000001be00d602020008
:1087600000000000001f9800111f980090c28100b7
:10877000a1c281000001be00d6020200000000007c
:108780000002be00d0c28100e1c281000001be0033
:108790000400be00ec05020000000000201f98004d
:1087a000311f9800d0c28100e1c281000001be00eb
:1087b000d6020200000000000002be00f0c28100ec
:1087c00001c381000001be000400be00ec050200f0
:1087d00000000000401f9800511f980094c28100c3
:1087e000a5c2810090c28100a1c281000001be002b
:1087f0000400be00ec05020000000000601f9800ad
:10880000711f980094c28100a5c28100b0c281008e
:10881000c1c281000001be000400be00ec050200e0
:1088200000000000002798001127980094c28100e2
:10883000a5c28100d0c28100e1c281000001be005a
:108840000400be00ec050200000000002027980094
:108850003127980094c28100a5c28100f0c2810036
:1088600001c381000001be000400be00ec0502004f
:10887000000000004027980051279800b4c28100f2
:10888000c5c28100b0c28100c1c281000001be002a
:108890000400be00ec050200000000006027980004
:1088a00071279800b4c28100c5c28100d0c2810086
:1088b000e1c281000001be000400be00ec05020020
:1088c00000000000002f9800112f9800b4c2810012
:1088d000c5c28100f0c2810001c381000001be0059
:1088e0000400be00ec05020000000000202f9800ec
:1088f000312f9800d4c28100e5c28100d0c281002e
:10890000e1c281000001be000400be00ec050200cf
:1089100000000000402f9800512f9800d4c2810021
:10892000e5c28100f0c2810001c381000001be00e8
:108930000400be00ec05020000000000602f98005b
:10894000712f9800f4c2810005c38100f0c281003c
:1089500001c381000001be000400be00ec0502005e
:108960000000000000379800113798006e19900041
:10897000fe1990007eb097008eb89700ec050200bb
:10898000000000000004be00f0c2810001c38100ad
:108990004e099000de099000ec0502000000000086
:1089a0000001be000800be00d4020200000000006a
:1089b0000004be00d0c28100e1c281006e099000b7
:1089c000fe099000ec050200000000000001be005e
:1089d0000800be00d6020200000000000004be0035
:1089e0006e219000fe2190007eb097008eb8970017
:1089f000ec050200000000000001be000800be00ff
:108a0000d6020200000000000004be005eb1970024
:108a1000eeb197004e109000de109000ec050200c1
:108a2000000000000002be00d0c28100e1c281004f
:108a30000001be000400be00ec05020000000000c2
:108a40000001be000800be00d602020000000000c7
:108a50000004be003eb19700ceb197004e109000ca
:108a6000de109000ec050200000000000002be00d5
:108a7000f0c2810001c381000001be000400be00fd
:108a8000ec050200000000000001be000800be006e
:108a9000d6020200000000000004be004e29900033
:108aa000de2990007eb097008eb89700ec0502009a
:108ab000000000000001be000800be00d402020059
:108ac000000000000004be000e3190009e319000b6
:108ad0007eb097008eb89700ec0502000000000001
:108ae0000001be000800be00d40202000000000029
:108af0002037980031379800f0c2810001c381000f
:108b00002e099000be099000ec0502000000000054
:108b10000004be006e199000fe1990005eb0970030
:108b2000eeb09700ec050200000000000001be005e
:108b30000800be00d6020200000000000004be00d3
:108b4000b0c28100c1c281006e099000fe09900090
:108b5000ec050200000000000001be000800be009d
:108b6000d4020200000000000004be00d0c2810058
:108b7000e1c281000e1190009e119000ec050200f0
:108b8000000000000001be000800be00d602020086
:108b9000000000000004be006e219000fe21900045
:108ba0005eb09700eeb09700ec05020000000000f8
:108bb0000001be000800be00d40202000000000058
:108bc0000004be004e299000de2990005eb09700a0
:108bd000eeb09700ec050200000000000001be00ae
:108be0000800be00d6020200000000000004be0023
:108bf0003eb19700ceb197006e109000fe1090002d
:108c0000ec050200000000000002be00f0c281007e
:108c100001c381000001be000400be00ec0502009b
:108c2000000000000001be000800be00d6020200e5
:108c3000000000000004be000e3190009e31900044
:108c40005eb09700eeb09700ec0502000000000057
:108c50000001be000800be00d402020000000000b7
:108c600040379800513798002e319000be31900067
:108c70002e309000be309000ec0502000000000095
:108c80000004be004e319000de3190004e30900066
:108c9000de309000ec050200000000000001be0084
:108ca0000800be00d60202000000000058060200c4
:108cb0000000000060379800713798002e0890007f
:108cc000be0890000002be0005f0a200d0c28100e4
:108cd000e1c281000001be000400be00ec050200fc
:108ce000000000000004be00b0c28100c1c28100cb
:108cf0004e099000de099000ec0502000000000023
:108d00000001be000800be00d60202000000000004
:108d10000004be006e199000fe1990003eb097004e
:108d2000ceb09700ec050200000000000001be007c
:108d30000800be00d6020200000000000004be00d1
:108d4000f0c2810001c381000e1190009e119000bd
:108d5000ec050200000000000001be000800be009b
:108d6000d6020200000000000004be006e21900048
:108d7000fe2190003eb09700ceb09700ec050200b7
:108d8000000000000001be000800be00d402020086
:108d9000000000000004be005eb19700eeb1970035
:108da0006e109000fe109000ec0502000000000024
:108db0000002be00f0c2810001c381000001be00bc
:108dc0000400be00ec050200000000000001be002f
:108dd0000800be00d6020200000000000004be0031
:108de0004e299000de2990003eb09700ceb097004b
:108df000ec050200000000000001be000800be00fb
:108e0000d4020200000000000004be000e319000f9
:108e10009e3190003eb09700ceb09700ec05020066
:108e2000000000000001be000800be00d6020200e3
:108e300000000000003f9800113f98006e30900045
:108e4000fe3090000001be00d602020000000000cb
:108e5000203f9800313f98000e3890009e389000d7
:108e60000001be00d602020000000000403f980052
:108e7000513f98006e109000fe1090000004be005c
:108e800009f0a2002e289000be2890000001be002c
:108e9000d6020200000000002e199000be199000ba
:108ea000d4020200000000004e899000de8990008c
:108eb000d4020200000000000001be000800be0055
:108ec000ec050200000000000004be000e2090002f
:108ed0009e2090000001be00d602020000000000ab
:108ee0004e199000de199000d6020200000000002a
:108ef0003eb99700ceb99700d402020000000000ee
:108f00004e119000de119000ec0502000000000000
:108f10000001be000800be00d602020000000000f2
:108f20000004be00d0c28100e1c281000e39900071
:108f30009e399000ec050200000000000005be0014
:108f40004e299000de2990000000200001f023004f
:108f5000d4020200000000000e3190009e3190000b
:108f6000d4020200000000006e319000fe3190003b
:108f7000ec050200000000000006be002e2190005b
:108f8000be2190002e289000be289000d40202003e
:108f9000000000000e3990009e399000ec050200a0
:108fa000000000000001be000c00be00d60202005e
:108fb000000000007eb197008eb99700d402020035
:108fc000000000000001be000a00be00ec05020027
:108fd000000000000001be000800be00d402020034
:108fe000000000000004be006e309000fe309000d3
:108ff0000002be0005f0a200f0c2810001c38100a2
:109000000001be000400be00ec05020000000000ec
:109010000005be00b0c28100c1c281000e399000bf
:109020009e399000ec050200000000000001be0027
:109030000a00be00d6020200000000000005be00cb
:109040004e219000de2190000e2890009e28900076
:10905000d4020200000000006e319000fe3190004a
:10906000ec050200000000000006be006e29900022
:10907000fe2990000e2090009e209000d602020053
:10908000000000000e3990009e399000ec050200af
:10909000000000000001be000c00be00d60202006d
:1090a000000000005eb19700eeb19700d40202000c
:1090b000000000000001be000a00be00ec05020036
:1090c000000000000001be000800be00d602020041
:1090d000000000000004be00d0c28100e1c2810097
:1090e0006e319000fe319000ec050200000000009f
:1090f0000005be002e299000be2990002e20900071
:10910000be209000d6020200000000006e319000e8
:10911000fe319000ec050200000000000006be00d9
:109120006e219000fe2190000000200001f023003d
:10913000d4020200000000004e299000de299000b9
:10914000d4020200000000000e3990009e39900009
:10915000ec050200000000000001be000c00be0093
:10916000d6020200000000003eb19700ceb1970089
:10917000d4020200000000000001be000a00be0090
:10918000ec050200000000000001be000800be0067
:10919000d602020000000000603f9800713f980076
:1091a0002e289000be2890000001be00d6020200ca
:1091b000000000002e199000be199000d402020099
:1091c000000000004e899000de899000d402020069
:1091d000000000000e1990009e199000ec0502009e
:1091e000000000000004be000e2090009e209000b1
:1091f0000001be00d6020200000000004e199000df
:10920000de199000d6020200000000003eb997006f
:10921000ceb99700d4020200000000002e11900089
:10922000be119000ec050200000000000001be002d
:109230000800be00d6020200000000000004be00cc
:10924000b0c28100c1c281000200200003082400d6
:10925000ec050200000000000005be006e2090003a
:10926000fe2090000001be00d602020000000000b7
:109270000001be000000200001f82300d40202001b
:10928000000000000006be004e289000de2890007e
:109290000001be00d6020200000000000001be0076
:1092a0000c00be00d4020200000000001eb99700ae
:1092b000aeb99700d4020200000000000001be0019
:1092c0000a00be00ec050200000000000001be0024
:1092d0000800be00d4020200000000000004be002e
:1092e000f0c2810001c381000e3990009e399000c8
:1092f000ec050200000000000005be004e299000b1
:10930000de2990000000200001f02300d4020200ba
:10931000000000000e3190009e319000d402020047
:10932000000000006e319000fe319000ec0502005c
:10933000000000000006be002e219000be2190001b
:109340002e289000be289000d402020000000000e9
:109350000e3990009e399000ec05020000000000dc
:109360000001be000c00be00d6020200000000009a
:109370007eb197008eb99700d40202000000000071
:109380000001be000a00be00ec0502000000000063
:109390000001be000800be00d6020200000000006e
:1093a0000004be00d0c28100e1c281006e31900095
:1093b000fe319000ec050200000000000005be0038
:1093c00090c28100a1c281000e3990009e399000a8
:1093d000ec050200000000000001be000a00be0013
:1093e000d6020200000000000005be004e219000e1
:1093f000de2190000e2890009e289000d4020200ea
:10940000000000006e319000fe319000ec0502007b
:10941000000000000006be006e299000fe299000aa
:109420000e2090009e209000d60202000000000056
:109430000e3990009e399000ec05020000000000fb
:109440000001be000c00be00d602020000000000b9
:109450005eb19700eeb19700d40202000000000058
:109460000001be000a00be00ec0502000000000082
:109470000001be000800be00d6020200000000008d
:109480000004be00f0c2810001c381006e31900073
:10949000fe319000ec050200000000000005be0057
:1094a000b0c28100c1c281004e399000de39900007
:1094b000ec050200000000000001be000a00be0032
:1094c000d4020200000000000005be002e2990001a
:1094d000be2990002e209000be209000d6020200ef
:1094e000000000006e319000fe319000ec0502009b
:1094f000000000000006be006e219000fe219000da
:109500000000200001f02300d4020200000000004f
:109510004e299000de299000d402020000000000d5
:109520000e3990009e399000ec050200000000000a
:109530000001be000c00be00d602020000000000c8
:109540003eb19700ceb19700d402020000000000a7
:109550000001be000a00be00ec0502000000000091
:109560000001be000800be00d6020200000000009c
:1095700000879800118798002e109000be10900070
:109580000004be0009f0a2002e289000be28900022
:109590000001be00d6020200000000002e1990005b
:1095a000be199000d4020200000000004e89900015
:1095b000de899000d4020200000000000001be001d
:1095c0000800be00ec050200000000000004be0020
:1095d0000e2090009e2090000001be00d6020200e6
:1095e000000000004e199000de199000d602020023
:1095f000000000003eb99700ceb99700d4020200e7
:10960000000000000e1990009e199000ec05020069
:10961000000000000001be000800be00d6020200eb
:10962000000000000004be00d0c28100e1c2810041
:109630000200200003082400ec05020000000000e6
:109640000005be006e209000fe2090000001be00cc
:10965000d6020200000000000001be000000200051
:1096600001f82300d4020200000000000006be0042
:109670004e289000de2890000001be00d6020200b5
:10968000000000000001be000c00be00d402020079
:10969000000000001eb99700aeb99700d402020086
:1096a000000000000001be000a00be00ec05020040
:1096b000000000000001be000800be00d40202004d
:1096c000000000000004be002e389000be3890005c
:1096d0000002be0005f0a200d0c28100e1c28100fc
:1096e0000001be000400be00ec0502000000000006
:1096f0000005be0090c28100a1c281000e39900019
:109700009e399000ec050200000000000001be0040
:109710000a00be00d4020200000000000005be00e6
:109720004e299000de2990000000200001f0230067
:10973000d4020200000000000e3190009e31900023
:10974000d4020200000000006e319000fe31900053
:10975000ec050200000000000006be002e21900073
:10976000be2190002e289000be289000d402020056
:10977000000000000e3990009e399000ec050200b8
:10978000000000000001be000c00be00d602020076
:10979000000000007eb197008eb99700d40202004d
:1097a000000000000001be000a00be00ec0502003f
:1097b000000000000001be000800be00d60202004a
:1097c000000000000004be00b0c28100c1c28100e0
:1097d0006e319000fe319000ec05020000000000a8
:1097e0000005be00f0c2810001c381000e39900067
:1097f0009e399000ec050200000000000001be0050
:109800000a00be00d6020200000000000005be00f3
:109810004e219000de2190000e2890009e2890009e
:10982000d4020200000000006e319000fe31900072
:10983000ec050200000000000006be006e2990004a
:10984000fe2990000e2090009e209000d60202007b
:10985000000000000e3990009e399000ec050200d7
:10986000000000000001be000c00be00d602020095
:10987000000000005eb19700eeb19700d402020034
:10988000000000000001be000a00be00ec0502005e
:10989000000000000001be000800be00d602020069
:1098a000000000000004be0090c28100a1c281003f
:1098b0006e319000fe319000ec05020000000000c7
:1098c0000005be00d0c28100e1c281004e39900087
:1098d000de399000ec050200000000000001be002f
:1098e0000a00be00d4020200000000000005be0015
:1098f0002e299000be2990002e209000be209000be
:10990000d6020200000000006e319000fe3190008f
:10991000ec050200000000000006be006e21900071
:10992000fe2190000000200001f02300d40202007c
:10993000000000004e299000de299000d4020200b1
:10994000000000000e3990009e399000ec050200e6
:10995000000000000001be000c00be00d6020200a4
:10996000000000003eb19700ceb19700d402020083
:10997000000000000001be000a00be00ec0502006d
:10998000000000000001be000800be00d602020078
:109990000000000020879800318798002e28900052
:1099a000be2890000001be00d602020000000000a8
:1099b0002e199000be199000d40202000000000091
:1099c0004e899000de899000d40202000000000061
:1099d0004e119000de119000ec0502000000000026
:1099e0000004be000e2090009e2090000001be00ea
:1099f000d6020200000000004e199000de1990000f
:109a0000d6020200000000003eb99700ceb99700d0
:109a1000d4020200000000006e119000fe119000c0
:109a2000ec050200000000000001be000800be00be
:109a3000d6020200000000000004be002e38900094
:109a4000be3890000002be0005f0a200f0c2810006
:109a500001c381000001be000400be00ec0502004d
:109a6000000000000005be00b0c28100c1c281003c
:109a70000e3990009e399000ec05020000000000b5
:109a80000001be000a00be00d60202000000000075
:109a90000005be004e299000de2990000000200045
:109aa00001f02300d4020200000000000e319000fb
:109ab0009e319000d4020200000000006e31900040
:109ac000fe319000ec050200000000000006be0020
:109ad0002e219000be2190002e289000be289000dc
:109ae000d4020200000000000e3990009e39900060
:109af000ec050200000000000001be000c00be00ea
:109b0000d6020200000000007eb197008eb99700d7
:109b1000d4020200000000000001be000a00be00e6
:109b2000ec050200000000000001be000800be00bd
:109b3000d6020200000000000004be006e3090005b
:109b4000fe3090000002be0005f0a20090c281002d
:109b5000a1c281000001be000400be00ec050200ad
:109b6000000000000005be00d0c28100e1c28100fb
:109b70000e3990009e399000ec05020000000000b4
:109b80000001be000a00be00d60202000000000074
:109b90000005be004e219000de2190000e289000ae
:109ba0009e289000d4020200000000006e31900058
:109bb000fe319000ec050200000000000006be002f
:109bc0006e299000fe2990000e2090009e209000ab
:109bd000d6020200000000000e3990009e3990006d
:109be000ec050200000000000001be000c00be00f9
:109bf000d6020200000000005eb19700eeb19700af
:109c0000d4020200000000000001be000a00be00f5
:109c1000ec050200000000000001be000800be00cc
:109c2000d6020200000000000004be00b0c28100a5
:109c3000c1c281006e319000fe319000ec0502003f
:109c4000000000000005be002e299000be299000f3
:109c50002e209000be209000d602020000000000de
:109c60006e319000fe319000ec0502000000000013
:109c70000006be006e219000fe2190000000200032
:109c800001f02300d4020200000000004e299000e1
:109c9000de299000d4020200000000000e3990007e
:109ca0009e399000ec050200000000000001be009b
:109cb0000c00be00d6020200000000003eb197007a
:109cc000ceb19700d4020200000000000001be00e7
:109cd0000a00be00ec050200000000000001be000a
:109ce0000800be00d6020200000000004087980075
:109cf000518798006e399000fe3990006e389000c0
:109d0000fe389000ec050200000000000004be00d8
:109d10000e8190009e8190000e8090009e809000a9
:109d2000ec050200000000000001be000800be00bb
:109d3000d6020200000000000004be002e81900048
:109d4000be8190002e809000be809000ec05020045
:109d5000000000000001be000800be00d6020200a4
:109d6000000000000004be004e819000de819000e3
:109d70004e809000de809000ec05020000000000a4
:109d80000001be000800be00d60202000000000074
:109d900058040700000f9800110f98000e0990005a
:109da0009e0990006e389000fe389000ec0502008d
:109db00000000000603f9800713f98000e0990007d
:109dc0009e0990000e8090009e809000ec0502009d
:109dd0000000000000879800118798000e0990008d
:109de0009e0990002e809000be809000ec0502003d
:109df0000000000020879800318798000e0990002d
:109e00009e0990004e809000de809000ec050200dc
:109e100000000000408798005187980070c28100c0
:109e200081c281006e399000fe399000ec0502007d
:109e3000000000000001be001e00be00d4020200af
:109e400000000000008fbe0070c2810081c281004e
:109e50000e8190009e819000ec0502000000000041
:109e60000001be002e009000be009000d40202004f
:109e700000000000200798003107980070c28100a0
:109e800081c281002e819000be819000ec0502000d
:109e9000000000000001be004e009000de009000b7
:109ea000d40202000000000040079800510798000b
:109eb00070c2810081c281004e819000de819000dd
:109ec000ec050200000000000001be006e009000e2
:109ed000fe009000d402020000000000600798001d
:109ee00071079800a2702d0033d223001e00be001f
:109ef000ec050200000000000002be0090c28100dc
:109f0000a1c281000001be000400be00d602020012
:109f10000000000090c28900a1c28900a2702d003b
:109f200033d223002e009000be009000ec0502000a
:109f3000000000000002be00b0c28100c1c281006a
:109f40000001be000400be00d602020000000000b6
:109f5000b0c28900c1c28900a2702d0033d2230093
:109f60004e009000de009000ec05020000000000b2
:109f70000002be00d0c28100e1c281000001be002b
:109f80000400be00d602020000000000d0c289001a
:109f9000e1c28900a2702d0033d223006e00900030
:109fa000fe009000ec050200000000000002be0070
:109fb000f0c2810001c381000001be000400be00a8
:109fc000d602020000000000f0c2890001c389002f
:109fd00094c28100a5c2810090c28100a1c281000b
:109fe0000001be000400be00ec05020000000000fd
:109ff0000004be00b4c28100c5c28100b0c28100ad
:10a00000c1c281000001be000400be00ec050200d8
:10a01000000000000001be000800be00d6020200e1
:10a02000000000000004be00d4c28100e5c281002f
:10a03000d0c28100e1c281000001be000400be0068
:10a04000ec050200000000000001be000800be0098
:10a05000d6020200000000000004be00f4c281002d
:10a0600005c38100f0c2810001c381000001be0070
:10a070000400be00ec050200000000000001be006c
:10a080000800be00d602020000000000990307008d
:10a09000000f9800110f980090c28100a1c28100aa
:10a0a0000e0990009e099000ec05020000000000df
:10a0b00090c28900a1c28900b0c28100c1c28100e2
:10a0c0000e0990009e099000ec05020000000000bf
:10a0d000b0c28900c1c28900d0c28100e1c2810042
:10a0e0000e0990009e099000ec050200000000009f
:10a0f000d0c28900e1c28900f0c2810001c38100a1
:10a100000e0990009e099000ec050200000000007e
:10a11000f0c2890001c389004f06be004f05be0092
:10a120004f04be000080fa00000006006800fa003c
:10a13000889fbe00402f9800512f9800622f9800f2
:10a14000732f980004379800153798002637980029
:10a1500037379800b0c28100c1c2810001f0a2006f
:10a160004e299000de299000ec050200000000005e
:10a170000004be00d0c28100e1c281006e299000bf
:10a18000fe299000ec050200000000000001be0066
:10a190000800be00d4020200000000000004be005f
:10a1a000f0c2810001c381000e3190009e31900009
:10a1b000ec050200000000000001be000800be0027
:10a1c000d4020200000000000200200003f023007f
:10a1d000ec05020000000000008fbe0090c281006c
:10a1e000a1c281004e299000de299000ec050200fa
:10a1f000000000000004be00d0c28100e1c2810066
:10a200000e3190009e319000ec050200000000002d
:10a210000001be000800be00d602020000000000df
:10a220000004be00f0c2810001c381006e299000cd
:10a23000fe299000ec050200000000000001be00b5
:10a240000800be00d402020000000000020020004e
:10a2500003f02300ec050200000000002007980036
:10a260003107980090c28100a1c281006e29900040
:10a27000fe299000ec050200000000000004be0072
:10a28000b0c28100c1c281000e3190009e319000a9
:10a29000ec050200000000000001be000800be0046
:10a2a000d4020200000000000004be00f0c28100e1
:10a2b00001c381004e299000de299000ec050200c8
:10a2c000000000000001be000800be00d60202002f
:10a2d000000000000200200003f02300ec05020053
:10a2e00000000000400798005107980090c28100cc
:10a2f000a1c281000e3190009e319000ec05020059
:10a30000000000000004be00b0c28100c1c2810094
:10a310006e299000fe299000ec050200000000006c
:10a320000001be000800be00d602020000000000ce
:10a330000004be00d0c28100e1c281004e2990001d
:10a34000de299000ec050200000000000001be00c4
:10a350000800be00d402020000000000020020003d
:10a3600003f02300ec0502000000000060079800e5
:10a370007107980018c0b3006011b8002e3090002b
:10a38000be309000e204020000000000e00f500028
:10a39000010032000044eb00084078000004a200f5
:10a3a000e04f50001a003a0018c0b3006011b80026
:10a3b0003eb89700ceb89700e2040200000000000b
:10a3c000e00f5000010032000044eb00084078002c
:10a3d0000004a200e04f50000d003a0018c0b30086
:10a3e0006011b8001eb89700aeb89700e2040200f2
:10a3f00000000000e00f5000010032000044eb00bc
:10a40000084078000004a200e04f5000290232000a
:10a410002e319000be3190002e309000be30900062
:10a42000ec050200000000000004be003eb99700e9
:10a43000ceb997003eb89700ceb89700ec05020061
:10a44000000000000001be000800be00d6020200ad
:10a45000000000000004be001eb99700aeb99700ce
:10a460001eb89700aeb89700ec050200000000008f
:10a470000001be000800be00d6020200000000007d
:10a480009c020700000f9800110f98000e09900021
:10a490009e0990002e309000be309000ec05020026
:10a4a0000000000020379800313798000e09900016
:10a4b0009e0990003eb89700ceb89700ec050200c8
:10a4c0000000000030bf9f0041bf9f000e099000b8
:10a4d0009e0990001eb89700aeb89700ec050200e8
:10a4e0000000000010bf9f0021bf9f0090c28100ac
:10a4f000a1c281000001be00d602020000000000df
:10a50000200f9800310f9800b0c28100c1c28100b5
:10a510000001be00d602020000000000400f9800bb
:10a52000510f9800d0c28100e1c281000001be003d
:10a53000d602020000000000600f9800710f980022
:10a54000f0c2810001c381000001be00d6020200fa
:10a5500000000000001798001117980090c28100b9
:10a56000a1c281000200200003082400ec050200c3
:10a57000000000002017980031179800b0c2810039
:10a58000c1c281000200200003082400ec05020083
:10a59000000000004017980051179800d0c28100b9
:10a5a000e1c281000200200003082400ec05020043
:10a5b000000000006017980071179800b0c2810079
:10a5c000c1c281000200200003102400ec0502003b
:10a5d00000000000001f9800111f9800d0c28100e9
:10a5e000e1c281000200200003102400ec050200fb
:10a5f00000000000201f9800311f980094c28100c5
:10a60000a5c2810090c28100a1c281000001be00ec
:10a610000400be00ec05020000000000401f98008e
:10a62000511f9800b4c28100c5c28100b0c2810030
:10a63000c1c281000001be000400be00ec050200a2
:10a6400000000000601f9800711f9800d4c28100b4
:10a65000e5c28100d0c28100e1c281000001be00dc
:10a660000400be00ec050200000000000027980076
:10a6700011279800f4c2810005c38100f0c2810057
:10a6800001c381000001be000400be00ec05020011
:10a690000000000020279800312798000e2190002c
:10a6a0009e2190002e109000be109000ec0502003c
:10a6b000000000000004be002e319000be3190006a
:10a6c0006e089000fe089000ec05020000000000fb
:10a6d0000001be000800be00d6020200000000001b
:10a6e0000004be006e199000fe1990002e1090001c
:10a6f000be109000ec050200000000000001be004a
:10a700000800be00d6020200000000000004be00e7
:10a710003eb99700ceb997004e089000de08900031
:10a72000ec050200000000000001be000800be00b1
:10a73000d402020000000000402798005127980032
:10a740002e219000be2190004e109000de1090004f
:10a75000ec050200000000000004be002e31900055
:10a76000be3190000e1090009e109000ec0502008b
:10a77000000000000001be000800be00d40202007c
:10a78000000000000004be000200200003082400b6
:10a790004e189000de189000ec050200000000004a
:10a7a0000002be00b0c28100c1c281000001be0033
:10a7b0000400be00ec050200000000000001be0025
:10a7c0000800be00d6020200000000000004be0027
:10a7d0003eb99700ceb997002e089000be089000b1
:10a7e000ec050200000000000001be000800be00f1
:10a7f000d4020200000000004e119000de11900013
:10a80000d4020200000000000004be006e19900097
:10a81000fe1990000e1890009e189000ec050200a2
:10a82000000000000001be000800be00d6020200c9
:10a83000000000000004be000e2190009e21900048
:10a840000e1890009e189000ec0502000000000019
:10a850000001be000800be00d60202000000000099
:10a860000004be001eb99700aeb997004e109000cc
:10a87000de109000ec050200000000000001be00a8
:10a880000800be00d6020200000000006027980009
:10a890007127980002002000030824004e18900041
:10a8a000de189000ec050200000000000002be006f
:10a8b000d0c28100e1c281000001be000400be00e0
:10a8c000ec050200000000000004be002e319000e4
:10a8d000be3190002e089000be089000ec050200ea
:10a8e000000000000001be000800be00d602020009
:10a8f000000000000004be002e219000be21900048
:10a900006e109000fe109000ec05020000000000a8
:10a910000001be000800be00d602020000000000d8
:10a920000004be003eb99700ceb997000e1090000b
:10a930009e109000ec050200000000000001be0027
:10a940000800be00d4020200000000006e1190005a
:10a95000fe119000d4020200000000000004be00be
:10a960006e199000fe1990002e189000be189000ed
:10a97000ec050200000000000001be000800be005f
:10a98000d6020200000000000004be000e2190006c
:10a990009e2190002e189000be189000ec05020039
:10a9a000000000000001be000800be00d602020048
:10a9b000000000000004be001eb99700aeb9970069
:10a9c0006e109000fe109000ec05020000000000e8
:10a9d0000001be000800be00d60202000000000018
:10a9e000002f9800112f9800020020000308240077
:10a9f0006e189000fe189000ec05020000000000a8
:10aa00000002be00f0c2810001c381000001be004f
:10aa10000400be00ec050200000000000004be00bf
:10aa20002e319000be3190004e089000de0890005c
:10aa3000ec050200000000000001be000800be009e
:10aa4000d4020200000000000004be00020020004a
:10aa5000030824000e2090009e209000ec050200c8
:10aa6000000000000002be00f0c2810001c38100ae
:10aa70000001be000400be00ec0502000000000062
:10aa80000001be000800be00d60202000000000067
:10aa90000004be003eb99700ceb997006e08900042
:10aaa000fe089000ec050200000000000001be005e
:10aab0000800be00d402020000000000202f980011
:10aac000312f98004e219000de2190004e20900002
:10aad000de209000ec050200000000000004be0033
:10aae0006e219000fe2190006e209000fe209000cc
:10aaf000ec050200000000000001be000800be00de
:10ab0000d6020200000000000004be000e299000e2
:10ab10009e2990000e2890009e289000ec050200cf
:10ab2000000000000001be000800be00d6020200c6
:10ab3000000000000004be002e299000be299000f5
:10ab40002e289000be289000ec05020000000000b6
:10ab50000001be000800be00d60202000000000096
:10ab6000e4000700000f9800110f98000e099000f4
:10ab70009e0990004e209000de209000ec0502001f
:10ab80000000000040279800512798000e0990000f
:10ab90009e0990006e209000fe209000ec050200bf
:10aba0000000000060279800712798000e099000af
:10abb0009e0990000e2890009e289000ec0502004f
:10abc00000000000002f9800112f98000e0990003f
:10abd0009e0990002e289000be289000ec050200ef
:10abe00000000000202f9800312f980070c28100d3
:10abf00081c281004e219000de219000ec05020010
:10ac0000000000000001be001e00be00d4020200d1
:10ac100000000000008fbe0070c2810081c2810070
:10ac20006e219000fe219000ec0502000000000063
:10ac30000001be002e009000be009000d402020071
:10ac400000000000200798003107980070c28100c2
:10ac500081c281000e2990009e299000ec0502001f
:10ac6000000000000001be004e009000de009000d9
:10ac7000d40202000000000040079800510798002d
:10ac800070c2810081c281002e299000be299000ef
:10ac9000ec050200000000000001be006e00900004
:10aca000fe009000d402020000000000600798003f
:10acb00071079800a2702d0033d223001e00be0041
:10acc000ec050200000000000002be0090c28100fe
:10acd000a1c281000001be000400be00d602020035
:10ace0000000000090c28900a1c28900a2702d005e
:10acf00033d223002e009000be009000ec0502002d
:10ad0000000000000002be00b0c28100c1c281008c
:10ad10000001be000400be00d602020000000000d8
:10ad2000b0c28900c1c28900a2702d0033d22300b5
:10ad30004e009000de009000ec05020000000000d4
:10ad40000002be00d0c28100e1c281000001be004d
:10ad50000400be00d602020000000000d0c289003c
:10ad6000e1c28900a2702d0033d223006e00900052
:10ad7000fe009000ec050200000000000002be0092
:10ad8000f0c2810001c381000001be000400be00ca
:10ad9000d602020000000000f0c2890001c3890051
:10ada00094c28100a5c2810090c28100a1c281002d
:10adb0000001be000400be00ec050200000000001f
:10adc0000004be00b4c28100c5c28100b0c28100cf
:10add000c1c281000001be000400be00ec050200fb
:10ade000000000000001be000800be00d602020004
:10adf000000000000004be00d4c28100e5c2810052
:10ae0000d0c28100e1c281000001be000400be008a
:10ae1000ec050200000000000001be000800be00ba
:10ae2000d6020200000000000004be00f4c281004f
:10ae300005c38100f0c2810001c381000001be0092
:10ae40000400be00ec050200000000000001be008e
:10ae50000800be00d6020200000000002500070026
:10ae6000000f9800110f980090c28100a1c28100cc
:10ae70000e0990009e099000ec0502000000000001
:10ae800090c28900a1c28900b0c28100c1c2810004
:10ae90000e0990009e099000ec05020000000000e1
:10aea000b0c28900c1c28900d0c28100e1c2810064
:10aeb0000e0990009e099000ec05020000000000c1
:10aec000d0c28900e1c28900f0c2810001c38100c3
:10aed0000e0990009e099000ec05020000000000a1
:10aee000f0c2890001c389004f04be000080fa004f
:10aef000000006001000fa00600798007107980033
:10af00000200200003f023006e009000fe0090007d
:10af1000ec05020000000000008fbe006e009000f3
:10af2000fe00900020079800310798006400470059
:10af30001000be0040079800510798004e00900096
:10af4000de0090008180d1000080d300f29d2500ba
:10af500073f32500000051008180590040079800dc
:10af600051079800680047001000be0020079800b5
:10af7000310798002e009000be0090001e01be0018
:10af8000ec050200000000000002be002e00900050
:10af9000be0090000001be000400be00ec050200ef
:10afa000000000000001be000000200001fc2300a2
:10afb000d4020200000000000002be002e0090003b
:10afc000be0090000001be000400be00ec050200bf
:10afd0000000000020079800310798002e00900024
:10afe000be0090000080fa00000006000600fa0093
:10aff000100280004500de00674060000080fb001a
:10b00000000f78009002800010079800ff3ffc00be
:10b0100011028000000e20000080700010028800e5
:10b020001e00900090028800000088003a74020020
:10b03000000000009002800020079800ff3ffc0005
:10b040001e00780000407800674060000080fb0030
:10b05000670060004500dd0012028000f1f12f0062
:10b060008100610000807000100288002e009000b6
:10b0700090028800000088000080fa0000000600ae
:10b080000c00fa00004f9800114f9800224f9800d2
:10b09000a002800010079800020021000310200089
:10b0a0000e4890008080fb00008021008008b800de
:10b0b0000100200002014000838148001e489000ea
:10b0c0000080fb004b00dd0001002000020040007a
:10b0d000838048004008de00010020000000780066
:10b0e000a0028800000021000110200080007800ec
:10b0f0001e4890000081fb000e4890000080fb007d
:10b10000e300b800000041004b00dd00008040007b
:10b11000200798002e00900032740200000000000a
:10b12000604798002e4890000080fb00f30f50000d
:10b130000a003200f40f50000e003200f20f5000ef
:10b1400012003a006e4090000080fb006400600036
:10b150004280de00004f78000f0037006e40900004
:10b160000080fb00680060004380de00004f780034
:10b17000090037006e4090000080fb007000600006
:10b180004480de00004f7800030037000040eb00f1
:10b19000004f7800000000001e009000a002880010
:10b1a0009e4078000180fb000080fa00000006004d
:10b1b0000600fa004047980051479800a00280001e
:10b1c000000f780002002100031020004e40900084
:10b1d0008080fb00008021008008b8000100200072
:10b1e00002014000838148005e4090000080fb0027
:10b1f0004b00dd0001002000020040008380480079
:10b200004008de000100200000007800a002880055
:10b210003000240040398800000021000110200087
:10b22000800078005e4090000081fb004e4090005e
:10b230000080fb00e300b800000041004b00dd008f
:10b2400000804000100798009e0090001e009000b3
:10b25000887402000000000064ff07001e007800f0
:10b26000a00288000080fa00000006000c00fa002e
:10b27000204f98000000eb00000f7800a002800033
:10b28000300798000000eb0010079800030037001b
:10b290001e0090000000e800100798001e009000bb
:10b2a000e20f500008003c001e00900000407800b3
:10b2b00032c1b300804078002e48900070ff070034
:10b2c000e10f5000f2ff32000200210003102000c5
:10b2d0002e4890008080fb00008021008008b8008c
:10b2e0000100200002014000838148001e00900000
:10b2f0004b00dd0001002000020040008380480078
:10b300004008de000100200000007800a002880054
:10b310000000210001102000800078002e489000dd
:10b320000080fb00e301b8001e0090000000410017
:10b330004b00dd0000804000200798001e8fe800d1
:10b340002e0090000080e800200798002e0090005a
:10b350003274020000000000004f9800f07f2000cf
:10b360009e007800808f500003003c000e48900043
:10b37000e14f4000f1ff3a00008020009e0078007d
:10b38000808f500002003a000000eb00000f7800b0
:10b390003e009000a00288001e0078000080fa00a5
:10b3a000000006001400fa00881f7800205798005b
:10b3b000a0028000600798000000eb00000f7800fa
:10b3c000010037001e0fe8001e007800e20f500059
:10b3d00008003c001e0078000040780032c1b30035
:10b3e000804078002e50900025ff0700e10f5000ac
:10b3f000f4ff32001e007800e30f500007003a000f
:10b400006e009000a002880040c481000030a000bf
:10b4100040c48900300020007f0137001e00e80092
:10b42000100798001e009000e30f500015003a002e
:10b430000000eb0010079800130037001e0090007a
:10b440000000e800100798001e009000e30f500075
:10b4500002003a000000eb00100798001e00900068
:10b460009e0f500008003a006e009000a002880075
:10b4700040c481000010a00040c4890010002000da
:10b4800065013700000000001e00900000407800b9
:10b4900042c1b300804078002e509000f8fe0700b3
:10b4a000e00f5000e5ff32000200210003102000f1
:10b4b0002e5090008080fb00008021008008b800a2
:10b4c0000100200002014000838148001e0090001e
:10b4d0004b00dd0001002000020040008380480096
:10b4e0004008de000100200000007800a002880073
:10b4f0000000210001102000800078002e509000f4
:10b500000080fb00e301b8001e0090000000410035
:10b510004b00dd0000804000200798002e50900076
:10b5200052ff0700e00f50000300320040c48100ca
:10b530000020a00040c4890080882300904078004b
:10b54000614f980041c48100e0ff2f00008060003f
:10b5500040c489000000eb00300798002000240060
:10b5600040398800ae0090000080eb008874020033
:10b5700000000000ae009000f00f200054740200a4
:10b58000000000002e0090000080e80020079800d6
:10b590000040eb00004f98003e0090000000e800e3
:10b5a000300798003b0037002e5090008080fb0051
:10b5b000f00f20008008b800800078000e4890004e
:10b5c0000080fb0000804000d20107005007980077
:10b5d00040c4810061006000e00f500005003200af
:10b5e00041c48100e0ff2f000080600040c489005a
:10b5f0000f0037005e009000ae00900088740200db
:10b60000000000000e4890000080fb00ae0090009b
:10b6100054740200000000002e0090000080e8003a
:10b62000200798003e0090000000e80030079800d6
:10b630000e4890000040e800004f98000e003700d0
:10b64000ae0090000080eb00887402000000000053
:10b65000ae009000f00f20005474020000000000c3
:10b660002e0090000080e800200798003e00900027
:10b670000000e800300798000e489000e14f4000bd
:10b6800004003a00be009000f0072000808f5000b8
:10b69000ebff34000e489000e14f40000400320000
:10b6a000be009000f0072000808f5000beff3400e5
:10b6b0004efe07000000eb00300798000e48900097
:10b6c000e14f4000f3ff3a0080882300ee489000ed
:10b6d0000148780002002100031020002e50900045
:10b6e0008080fb00008021008008b800010020005d
:10b6f00002014000838148001e0090004b00dd00e5
:10b700000100200002004000838048004008de0065
:10b710000100200000007800a00288000000210045
:10b7200001102000800078002e5090000080fb0067
:10b73000e301b8001e009000000041004b00dd0056
:10b74000008040000080e800200798002e00900054
:10b75000ae0090008100e8002107980032740200da
:10b7600000000000004f98002e009000ae009000f6
:10b770008100e800210798003674020000000000f4
:10b7800050079800220037002e5090008080fb0068
:10b79000f00f20008008b800800078000e4890006c
:10b7a0000080fb00008040005a010700de0090008e
:10b7b000810f5000080032006e009000a002880047
:10b7c00041c48100000820000080700040c489004e
:10b7d00070002000900037002e009000ae00900016
:10b7e0008100e80021079800327402000000000088
:10b7f000004f98002e009000ae0090008100e800fd
:10b8000021079800367402000000000050079800dd
:10b810000e489000e14f4000dbff3a00000021009d
:10b8200001102000800078002e5090000080fb0066
:10b83000e301b8001e007800000041004b00dd006d
:10b8400000804000000f980000002100011020003f
:10b85000800078002e5090000080fb00e301b800cb
:10b860001e009000000041004b00dd000080400001
:10b870002007980002002100031020002e509000a5
:10b880008080fb00008021008008b80001002000bb
:10b8900002014000838148001e0078004b00dd005b
:10b8a0000100200002004000838048004008de00c4
:10b8b0000100200000007800a00288000e0890001f
:10b8c0003674020000000000500798000e08900037
:10b8d0003274020000000000004f98001e0090002b
:10b8e000e00f500003003a005e0090000000e80006
:10b8f000500798005e009000e30f500007003600ec
:10b9000040c481000010a00040c489008e4890000f
:10b91000f0ceb30000c06000004f9800020021008c
:10b92000031020002e5090008080fb00008021003a
:10b930008008b80001002000020140008381480017
:10b940001e0090004b00dd000100200002004000be
:10b95000838048004008de000100200000007800dd
:10b96000a00288000e4890000080fb00ae0090000e
:10b9700054740200000000005e009000ae009000d1
:10b980008874020000000000100024004039880084
:10b9900096fd07000e4890000084fb002e009000ea
:10b9a0003274020000000000800f540007003a00cb
:10b9b0002e00900036740200000000008000780025
:10b9c0005e009000808f5000080032006e009000f2
:10b9d000a002880041c4810000082000008070009f
:10b9e00040c48900700020000b0037001e00780062
:10b9f00000407800804078002e509000ecfd070059
:10ba00006e009000a002880040c481000000d100b8
:10ba1000614060000080fb004f0478000080fa0065
:10ba2000000006000c00fa00a00280003007980019
:10ba300000002100011020004008de00010020006d
:10ba400000007800a00288000040eb00404798000a
:10ba5000aa0037000040eb00004f78000040eb00e8
:10ba6000104798000000eb00400798000000eb0032
:10ba700010079800030037001e0090000000e80047
:10ba8000100798001e009000e20f500008003e00d2
:10ba90001e0090000040780042c1b3008040780052
:10baa0004e40900076fd0700e00f5000f2ff32009c
:10bab0001e009000e30f500007003a003e00900087
:10bac000a002880040c481000010a00040c489008a
:10bad00010c0b3008d0037000000eb001007980085
:10bae0000c0037001e0090000040780032c1b30007
:10baf000804078004e40900061fd0700e00f50004c
:10bb000001003a001e4fe8001e0090000000e8000f
:10bb1000100798001e009000e20f5000f1ff360061
:10bb20001e407800e04f500029003a008040eb00b2
:10bb30004e4090009efd07000200210003102000ef
:10bb40004e4090008080fb00008021008008b800fb
:10bb50000100200002004000838048004008de0011
:10bb60000100200000007800a002880000002100f1
:10bb700001102000800078004e4090000081fb0002
:10bb8000008021008010b80000804000500798001d
:10bb900010002400403988005e009000800078008a
:10bba0000000eb0088740200000000005e009000be
:10bbb00080007800300f2000547402000000000064
:10bbc0000afd07003e009000a002880048003700f0
:10bbd0001e407800e14f500003003a003e00900004
:10bbe000a0028800420037001e407800e24f50005b
:10bbf00037003a0032c1b30021c0b3004e4090007c
:10bc00001ffd0700e00f50000b003a0032c1b300e7
:10bc10008040eb004e40900019fd0700e00f5000ff
:10bc200005003a0020002000100798000040eb00bb
:10bc3000104798001a0037000000eb00100798002a
:10bc4000030037001e0090000000e8001007980075
:10bc50001e0090000040780032c1b30080407800a0
:10bc60004e40900006fd0700e10f500003003a002f
:10bc70001e009000e20f5000f2ff36001e00900000
